:1000000067C000008FC000008DC000008BC00000E2
:1000100089C0000087C0000085C0000083C00000C8
:1000200081C000007FC000007DC000000C943D082E
:1000300079C0000077C0000075C0000073C00000E8
:1000400071C000006FC000006DC000006BC00000F8
:1000500069C0000067C0000065C0000063C0000008
:1000600061C000005FC000000C9468000C94920016
:100070000C9492000C9492000C9492000C949200B8
:100080000C9492000C9492000C9492000C949200A8
:100090000C9492000C943D080C9492000C949200E5
:1000A0000C9492000C9492000C9492000C94920088
:1000B0000C9492000C9492000C9492000C94920078
:1000C0000C9492000C9492000C9492000C94920068
:1000D00011241FBECFEFD8E0DEBFCDBF12E0A0E0FD
:1000E000B1E0EEE4FAE102C005900D92AA33B10747
:1000F000D9F725E0AAE3B2E001C01D92A235B2070C
:10010000E1F713E51093000115E0109301011FEFD3
:100110001093020118E0109303010C94FD030E9458
:10012000F708EDC16DCFFF93EF93FC0100820FB68E
:10013000F89404A21182228233824482558266821C
:10014000778280869186A286B386C486D586E68627
:10015000F786008B118B228B338B448B558B668BF0
:10016000778B808F918FA28FB38FC48FD58F0F9095
:10017000068E0F90078E0DB600A20EB601A2FB01EF
:1001800000A00DBE01A00EBE078C0F92068C0F9230
:10019000D58DC48DB38DA28D918D808D7789668923
:1001A000558944893389228911890089F784E68435
:1001B000D584C484B384A28491848084778066804B
:1001C0005580448033802280118004A00FBE0080BF
:1001D000EF91FF91089510926602109267021092BB
:1001E00068021092690281E00895809170029091F6
:1001F0007102A0917202B09173020196A11DB11D0E
:100200008093700290937102A0937202B093730274
:10021000883E9340A105B105D8F080917402909179
:100220007502A0917602B09177020196A11DB11DD1
:100230008093740290937502A0937602B093770234
:100240001092700210927102109272021092730258
:10025000E0916A02F0916B0293E0EE0FFF1F9A9516
:10026000E1F7ED57FB4F0480F581E02DE530F10516
:10027000BCF483E0EE0FFF1F8A95E1F7ED57FB4FCB
:1002800080819181A281B3810197A109B109808305
:100290009183A283B383892B8A2B8B2B09F4A0D65D
:1002A00080916C0290916D02A0916E02B0916F02EC
:1002B0000197A109B10949F080936C0290936D02F6
:1002C000A0936E02B0936F02089581E090E0A0E0E9
:1002D000B0E080936C0290936D02A0936E02B09395
:1002E0006F02C6C433D490936B0280936A0281E09C
:1002F00090E0A0E0B0E080936C0290936D02A09338
:100300006E02B0936F0210927402109275021092F6
:10031000760210927702109270021092710210927F
:100320007202109273020895A7E0B0E0EAE9F1E0EA
:100330000C942F0A0E8D1F8D6AA02BA12F8381D6BE
:10034000782EC8018034910514F480E490E003967F
:100350005C013CEFA322C50100D26C018FEFC816EF
:10036000D80609F445C060913A0270913B02809131
:100370003C0290913D0210E000E025E0222E312C5D
:10038000412C512C3BE5F32EA20191010E94130A4E
:1003900069837A838B839C8389809A809B819D83E8
:1003A000AC81AE8369817A818B819C816F5F7F4F45
:1003B0008F4F9F4F29813A81F29EF001F39EF00DFD
:1003C0001124E458FD4F20813181232B11F56093D6
:1003D0003A0270933B0280933C0290933D028981E4
:1003E0009A81AB81BC818F3F9F4FAF4FBF4F01F5CB
:1003F000872D2AD688248A9499249A949FEF9D83E6
:10040000AFEFAE83B4018D819E812796E2E10C941B
:100410004B0A0F5F1F4F0530110509F0B5CF6093F0
:100420003A0270933B0280933C0290933D02E0CFEE
:1004300088A199A118161906DCF6809143049091C1
:100440004404A0914504B09146040196A11DB11D3C
:100450008093430490934404A0934504B0934604CE
:100460007F0185E090E09183808328A139A13383C7
:100470002283D1AEC0AEC5010B2C000CAA0BBB0B66
:1004800082AF93AFA4AFB5AFEB5BFF4F1082E62D09
:10049000FF8190E080E02191D701A80FB91FDE967F
:1004A0002C93222321F0019687309105A1F78BE54B
:1004B00029813A81829F8001839F100D1124045865
:1004C0001D4FF801EA5BFF4F8FEF9FEF9183808311
:1004D0003BD1F801E85BFF4F608371838283938394
:1004E000389610822CA13DA18E010A5D1F4F4C8DC4
:1004F0005D8DB601C701E4D5872DA6D583CF24D164
:1005000065C20F931F93CF93DF93EC018B0199D5B5
:100510000115110571F02091000130910101C21700
:10052000D30738F020910201309103012C173D07C9
:1005300038F48AD58FEFDF91CF911F910F910895F5
:10054000B8016D5F7F4F6C7FA0917F04B0918004F4
:10055000EFE7F4E0109709F450C0AC17BD07C8F1FD
:1005600030E020E094E0EF37F907C1F122813381D8
:100570002E0F3F1FC217D307E0F2109779F5409175
:10058000810450918204460F571F50938204409378
:100590008104C217D30749F522813381620F731F8B
:1005A00073836283428153819F01240F351FA217F9
:1005B000B30761F412962D913C911397240F351FC8
:1005C000338322832D913C91318320833DD581E07B
:1005D000B2CFFD010D90BC91A02DBCCFAE01460F56
:1005E000571FA417B50758F6A4CFB983A8837B83F8
:1005F0006A83D183C083FE01D5CF94E0EF37F9073A
:1006000009F0B4CF30E020E0BACF23E0880F991F83
:100610002A95E1F7FC01ED57FB4F24813581253008
:10062000310534F5B901032E000C880B990B43E01A
:10063000220F331F4A95E1F7F901ED57FB4F448133
:10064000558126813781F901A3E0EE0FFF1FAA959E
:10065000E1F7ED57FB4F55834483B3E0440F551F3B
:10066000BA95E1F7FA01ED57FB4F378326830895DA
:100670006FEF7FEFCB010895FB0123E0EE0FFF1F2B
:100680002A95E1F7ED57FB4F44815581268137814B
:10069000F901A3E0EE0FFF1FAA95E1F7ED57FB4F1D
:1006A00055834483B3E0440F551FBA95E1F7FA012F
:1006B000ED57FB4F378326830895CF93DF93EC01EB
:1006C000C0D4209721F4C0D4CFEFDFEF20C09E012B
:1006D0002D5F3F4F2C7FC0917F04D0918004EFE7C6
:1006E000F4E0209781F34A815B814217530799F424
:1006F0004881598151834083409181045091820403
:10070000421B530B50938204409381049DD4CE012D
:10071000DF91CF9108952417350788F4DE01A20FE9
:10072000B31FB183A0836881798111967C936E9306
:10073000421B530B13965C934E931297DDCFFE0131
:100740000990D881C02DCDCF609178027091790247
:1007500080917A0290917B0208950F931F93CF931B
:10076000DF938C016ED40115110541F46DD48FEF28
:100770009FEFDF91CF911F910F9108950D5F1F4F54
:100780000C7FE0917F04F0918004B0E0A0E0D0E025
:10079000C0E02FE734E03097D9F4209739F32A816D
:1007A0003B812017310711F5288139812D933C9326
:1007B0002091810430918204201B310B30938204FC
:1007C0002093810441D4C80102978C0F9D1FD1CF83
:1007D000428153814017510738F49D01D9019F018F
:1007E0000190F081E02DD7CFEF01F8CF201B310B26
:1007F0003B832A83C20FD31FDBCF2BD48FD1109220
:10080000430410924404109245041092460410923E
:100810004D0510924E0510924F0510925005ECE7D1
:10082000F2E01182108216AE11AE10AE1382128267
:10083000E55AFF4F84E0E334F80799F7C7E4D4E0C2
:10084000188219821A821B821C8280D19E838D831A
:10085000279694E0CF37D90799F7BDDC77D19093ED
:100860004C0580934B053EDDE0917F04F0918004C0
:10087000309709F03CC01F921F921F921F9286E092
:1008800091E09F938F931F928AE08F931F9280E451
:100890008F931F921F9248DD2BE5269FF001279F23
:1008A000F00D1124E458FD4F81E090E091838083A6
:1008B000CDD31F921F921F921F928CE091E09F93C5
:1008C0008F931F9284E18F9381E08F9388EB8F93B6
:1008D00087EF98E09F938F9327DDA9D28DB79EB7BE
:1008E00048960FB6F8949EBF0FBE8DBFFFCF019004
:1008F000F081E02DBDCFCF92DF92EF92FF920F9368
:100900001F936B017C01CA010597439708F05CC0F7
:1009100085E0C816D104E104F10408F055C08BE568
:10092000869FF001879FF00D1124E458FD4F8081D0
:100930009181892B09F448C0B3E0440F551FBA9543
:10094000E1F7FA01ED57FB4F44815581FA01A3E02D
:10095000EE0FFF1FAA95E1F7ED57FB4F80819181C4
:10096000A281B38180179107A207B3076CF7868134
:100970009781D60163E0AA0FBB1F6A95E1F7AD57D7
:10098000BB4F15965C934E93149717969C938E933A
:1009900016970D931D932D933C93139773E0880F37
:1009A000991F7A95E1F7DC01AD57BB4F1596DC92A4
:1009B000CE921497D782C68281E01F910F91FF904B
:1009C000EF90DF90CF9008958FEFF7CFCF92DF9227
:1009D000EF92FF921F93CF93DF936B017C0131D392
:1009E000182F85E0C816D104E104F10408F063C0B3
:1009F0008BE58C9DF0018D9DF00D1124E458FD4F89
:100A000080819181892B09F456C0C114D104E1047D
:100A1000F10409F450C08091430490914404A091E2
:100A20004504B09146040197A109B109809343049C
:100A300090934404A0934504B09346040297A10503
:100A4000B1050CF4FCD28BE58C9DE0018D9DD00DA1
:100A50001124C458DD4FFE01E85BFF4F60817181B6
:100A600082819381A701960116D22AAD3BAD2D5FFD
:100A70003F4F2C7F88AD99AD0296B901821B930B35
:100A800040DD888199818430910529F1F8F4813025
:100A9000910529F1029709F43DC08BE58C9DF00189
:100AA0008D9DF00D1124E458FD4F11821082812F8D
:100AB000CBD281E003C0812FC7D28FEFDF91CF91DE
:100AC0001F91FF90EF90DF90CF90089586309105B1
:100AD00051F0079711F7C701B60129D2DECF19826D
:100AE0001882C6D0F8CFCA5BDF4F8881998127E092
:100AF000289FF001299FF00D1124E95BFB4F8181B4
:100B00009281A381B4810196A11DB11D818392833D
:100B1000A383B483C701B601AFDDBFCFE09100016D
:100B2000F0910101AFE7B4E01196FC93EE931182CE
:100B3000108280910201909103018E1B9F0B938381
:100B4000828313969C938E9312970895809104014B
:100B50009091050189319105C4F59C012E5F3F4FAD
:100B60003093050120930401DC0123E0AA0FBB1F91
:100B70002A95E1F7AD57BB4FFC0131961596FC93D2
:100B8000EE9314972FEF3FEF17963C932E93169703
:100B90004FEF5FEF6FEF7FE74D935D936D937C9326
:100BA000139743E0EE0FFF1F4A95E1F7ED57FB4F18
:100BB000358324839783868340E050E060E070E8CB
:100BC000408351836283738308958FEF9FEF08956D
:100BD0009C012550310923313105E8F4FC0133E053
:100BE000EE0FFF1F3A95E1F7ED57FB4F248135815A
:100BF0002530310584F409DDFB0123E0EE0FFF1FF2
:100C00002A95E1F7ED57FB4F2FEF3FEF3783268310
:100C10003583248308956FEF7FEFCB0108950F9301
:100C20001F93653071058105910500F52BE5269F21
:100C3000F001279FF00D1124E458FD4F20813181F0
:100C4000232BA1F022E030E0318320830281138145
:100C5000012E000C220B330B40914B0550914C059B
:100C60004ADE06D081E01F910F9108958FEFFBCFF0
:100C7000CF92DF92EF92FF920F931F9380914D05D9
:100C800090914E05A0914F05B09150051816190688
:100C90001A061B0654F481E0809351051F910F91B1
:100CA000FF90EF90DF90CF900895C0907802D090A1
:100CB0007902E0907A02F0907B028BE58C9DF00146
:100CC0008D9DF00D1124E458FD4F80819181019795
:100CD00079F540914B0550914C0502811381012E0D
:100CE000000C220B330BDA0183E0AA0FBB1F8A959D
:100CF000E1F7AD57BB4F14960D90BC91A02D93E03A
:100D0000AA0FBB1F9A95E1F7AD57BB4F8D919D91EF
:100D10000D90BC91A02D80179107A207B3070CF48A
:100D2000BDCF82E090E091838083C701B601E3DD0F
:100D300080914B0590914C054BDF60937802709346
:100D4000790280937A0290937B022BE5269FD00153
:100D5000279FB00D1124FD01E458FD4F41E050E004
:100D60005183408341E050E060E070E040936C02CA
:100D700050936D0260936E0270936F02BD016058D4
:100D80007D4F2C9DC0012D9D900D112480589D4FAD
:100D9000CAD984CF613071058105910539F062307F
:100DA00071058105910509F18FEF089580914D0539
:100DB00090914E05A0914F05B0915005AC01BD0139
:100DC0004F5F5F4F6F4F7F4F40934D0550934E05E0
:100DD00060934F0570935005892B8A2B8B2B11F054
:100DE00081E0089510925105FBCF80914D059091BF
:100DF0004E05A0914F05B0915005181619061A0618
:100E00001B0694F60197A109B10980934D059093B3
:100E10004E05A0934F05B0935005892B8A2B8B2B41
:100E2000F9F6809151058823D9F222DFD9CFCF92EC
:100E3000DF92EF92FF921F93CF93DF936B017C01C0
:100E400000D1182F85E0C816D104E104F10460F444
:100E50008BE58C9DF0018D9DF00D1124E458FD4F24
:100E600080819181009769F4812FEED0CFEFDFEF81
:100E7000CE01DF91CF911F91FF90EF90DF90CF9047
:100E80000895059789F7C281D381C701B601C7DEEE
:100E9000812FDAD0EDCF8F929F92AF92BF92CF92F7
:100EA000DF92EF92FF92CF934B015C0169017A01CF
:100EB000C8D0C82F85E088169104A104B10460F45D
:100EC0008BE5889DF001899DF00D1124E458FD4FBC
:100ED00080819181009769F48C2FB6D08FEFCF91EC
:100EE000FF90EF90DF90CF90BF90AF909F908F904A
:100EF0000895DF01A05BBF4F2C912111EDCFE45B82
:100F0000FF4FC082D182E282F38221E02C938330B2
:100F1000910539F4C501B40182DE8C2F95D081E0B2
:100F2000DECF0797D1F7C501B40101D0F3CFCF923F
:100F3000DF92EF92FF92CF936B017C0182D0C82F9A
:100F400085E0C816D104E104F10460F48BE58C9DC2
:100F5000F0018D9DF00D1124E458FD4F80819181A9
:100F6000009749F48C2F70D08FEFCF91FF90EF90C6
:100F7000DF90CF9008958430910511F0079791F795
:100F8000D60193E0AA0FBB1F9A95E1F7AD57BB4F6F
:100F90001496ED91FC911597E530F105C4F483E0CA
:100FA000EE0FFF1F8A95E1F7ED57FB4F408151810E
:100FB000628173818D919D910D90BC91A02D840FC4
:100FC000951FA61FB71F80839183A283B383C70198
:100FD000B60152DB8C2F38D081E0C7CFB5DBF6CC21
:100FE00061E070E080E090E0D5DE80916A0290914F
:100FF0006B02FC0153E0EE0FFF1F5A95E1F7ED572E
:10100000FB4F24813581253031058CF443E0220FDC
:10101000331F4A95E1F7F901ED57FB4F40815181AC
:101020006281738114161506160617062CF462E009
:1010300070E080E090E0AECECBDDF1DDD6CF08C031
:1010400008958FB7F89408958FBF08957894089500
:10105000FFCFE1E8F0E08081836080838081886059
:10106000808389EF90E09093890080938800EFE679
:10107000F0E080818260808308951F920F920FB606
:101080000F9211242F933F934F935F936F937F930E
:101090008F939F93AF93BF93EF93FF93A6D8FF9146
:1010A000EF91BF91AF919F918F917F916F915F91E0
:1010B0004F913F912F910F900FBE0F901F90189559
:1010C0000F931F93CF93DF93FC018AEADB018C938C
:1010D00033A722A7DF011496CF018A961D92A81785
:1010E000B907E1F744AB55AB46A357A380E880A707
:1010F000248F358FCF018C96828F938FAEEEB7E021
:10110000EB012197A8832197B883DB0113974C93B8
:1011100011975C936550710964A375A3E801DC0124
:1011200090E080E0821793076CF02A5E3F4F220F19
:10113000331FE20FF31F11821082DF91CF911F91B5
:101140000F910895499159914D935D930196EACF7E
:10115000E0ECF0E0158287E68483828186608283FA
:1011600081818861818308959091C00095FFFCCFB3
:101170008093C6000895CF93DF93C82F62DFD82FE6
:10118000CA3011F48DE0F0DF8C2FEEDF8D2F5CDFA5
:1011900081E0DF91CF910895A1E5B0E0E1EDF8E0C5
:1011A0006AC18E01065A1F4FF801E190F1908F013C
:1011B00021E530E040E050E070E060E0CE010196D3
:1011C000A7D19801A70160E570E0CE010196A7D1F3
:1011D0008E010F5F1F4FF80181918F01811105C0B2
:1011E00081E0CF5ADF4FE6E062C1C5DFF4CFB0E067
:1011F000A0E0ECEFF8E03CC1ABDFC1E1D1E0DF9370
:10120000CF93CADFDF93CF93C7DF809182048F93A0
:10121000809181048F93C1E5D1E0DF93CF93BCDF50
:101220001F9210E41F9390E6E92E91E0F92EFF92B1
:10123000EF92B2DF80E490E040DA6C01DF928F93AE
:1012400081EB91E09F938F93A7DF809182048F932E
:10125000809181048F93DF93CF939EDF1F921F9322
:10126000FF92EF9299DF80E490E027DAB82E092F01
:101270009F938F938DEB91E09F938F938DDF809160
:1012800082048F93809181048F93DF93CF9384DFC7
:101290008DB79EB780960FB6F8949EBF0FBE8DBFD8
:1012A0001F921F93DF92CF9284E791E09F938F93D9
:1012B00073DF60E470E0C60124D90F900F900F90A7
:1012C0000F900F900F908F3F79F483E991E09F93F7
:1012D0008F9362DF0F900F9061E070E080E090E00C
:1012E000CDB7DEB7E9E0E0C0809182048F938091B2
:1012F00081048F93DF93CF934FDF1F921F938AE96F
:10130000E82E81E0F82EFF92EF9246DF80E490E035
:1013100024DA6C01DF928F9380EB91E09F938F939F
:101320003BDF809182048F93809181048F93DF93C0
:10133000CF9332DF1F921F93FF92EF922DDF80E455
:1013400090E00BDA7C01FF928F938CEB91E09F93FE
:101350008F9322DF809182048F93809181048F93F9
:10136000DF93CF9319DF1F921F93DF92CF9288EC08
:1013700091E09F938F9310DF8DB79EB782960FB643
:10138000F8949EBF0FBE8DBF60E470E0C601CE979B
:10139000B8D8809182048F93809181048F93DF93DA
:1013A000CF93FADE1F921F93FF92EF928AEE91E0A5
:1013B0009F938F93F1DE60E470E0C701CE97A1D8D0
:1013C000809182048F93809181048F93DF93CF93D8
:1013D000E3DE1F921F930F93BF928CE092E09F93E6
:1013E0008F93DADE60E470E08B2D902F8AD82DB7D2
:1013F0003EB72C5E3F4F0FB6F8943EBF0FBE2DBFD9
:101400008F3F09F462CF809182048F938091810491
:101410008F938BE292E09F938F93BEDE0F900F909D
:101420000F900F9059CF052E97FB16F400940FD014
:1014300057FD05D04BD007FC02D046F408C05095AC
:101440004095309521953F4F4F4F5F4F08959095B0
:101450008095709561957F4F8F4F9F4F08952F9284
:101460003F924F925F926F927F928F929F92AF9234
:10147000BF92CF92DF92EF92FF920F931F93CF9381
:10148000DF93CDB7DEB7CA1BDB0B0FB6F894DEBF18
:101490000FBECDBF09942A88398848885F846E843E
:1014A0007D848C849B84AA84B984C884DF80EE8088
:1014B000FD800C811B81AA81B981CE0FD11D0FB691
:1014C000F894DEBF0FBECDBFED010895A1E21A2E44
:1014D000AA1BBB1BFD010DC0AA1FBB1FEE1FFF1FD8
:1014E000A217B307E407F50720F0A21BB30BE40B28
:1014F000F50B661F771F881F991F1A9469F760956F
:101500007095809590959B01AC01BD01CF01089528
:10151000DC0101C06D9341505040E0F70895AEE00A
:10152000B0E0E4E9FAE0A9CF8C01FA0186E08C830F
:101530001A83098377FF02C060E070E86150710987
:101540007E836D83A901BF01CE01019611D04D812B
:101550005E8157FD0AC02F813885421753070CF46E
:101560009A01020F131FF80110822E96E4E0A1CF1A
:10157000ABE0B0E0EDEBFAE072CF7C013B018A0119
:10158000FC0117821682838181FFBAC1CE010196C8
:101590005C01F7019381F30193FD859193FF8191A4
:1015A0003F01882309F449C1853239F493FD8591BF
:1015B00093FF81913F01853221F4B70190E0B9D1C9
:1015C000E8CF912C212C312CFFE1F31538F08B3230
:1015D00011F190F4803209F1833229F137FC3CC0DB
:1015E00020ED280F2A3050F536FE20C08AE0989E64
:1015F000200D1124922E06C08D3291F0803371F7A8
:10160000689430F8F30193FD859193FF81913F0138
:101610008111DACF21C0689431F8689432F8F2CFA2
:10162000689433F8EFCF689434F8ECCFEAE02E9E5C
:10163000200D1124222E689435F8E4CF8E3229F43F
:1016400036FCFBC0689436F8DDCF8C3619F468940C
:1016500037F8D8CF8836B1F2982F9F7D95549330C4
:10166000D8F0833691F18337B1F1833509F05EC04C
:101670002801F2E04F0E511CF801C080D180692D85
:1016800070E036FC02C06FEF7FEFC6013CD14C0129
:10169000689437F882010AC00C5F1F4FFFE3F9839B
:1016A00088248394912C6501E89437F833FE2AC08E
:1016B000522C8114910459F5552009F46ACFB701D1
:1016C00080E290E036D15A94F7CFF8018081898387
:1016D0000E5F1F4FE5CF2801F2E04F0E511CF801BD
:1016E000C080D180692D70E036FC02C06FEF7FEFC3
:1016F000C60114D14C018201D7CFB70180E290E03E
:1017000018D12A942814190409F0B8F7D1CFF6019A
:1017100037FC859137FE81916F01B70190E009D1C7
:1017200051105A94F1E08F1A9108C3CF843619F002
:10173000893609F073C0F80137FE67C06081718196
:10174000828193810C5F1F4FF32DFF763F2E97FF11
:1017500009C090958095709561957F4F8F4F9F4FF1
:10176000689437F82AE030E0A50113D1C82ECA18D2
:101770008C2C432C36FE0CC0E89440F8C91440F47D
:1017800034FE05C032FC03C0F32DFE7E4F2E892CA3
:1017900044FE90C0FE01EC0DF11D8081803309F004
:1017A00082C0242D297E422E842D8870582E43FC21
:1017B0008FC040FE89C09C2C821418F42C0C922CF3
:1017C000981844FE8BC0B70180E390E0B2D042FE8F
:1017D00008C088E790E041FE02C088E590E0B701CC
:1017E000A8D0C91408F486C0CA94D12C9FEFC91A96
:1017F000D90ACA0CDB1CF60182916F01B70190E097
:1018000098D0AC14BD04B9F757CF60817181072E11
:10181000000C880B990B0E5F1F4F96CFD32CE894CA
:10182000D4F82AE030E0853731F1232D297FD22EFC
:101830008F36F9F040F48835A1F0F7018681978161
:101840002B96E2E128CE803749F08837B1F7D4FEF5
:1018500002C06894D2F820E130E00DC06894D4F85A
:10186000F6CF34FE03C0822F8660D82E20E132E00E
:1018700002C028E030E0F801D7FE0EC0608171811F
:10188000828193810C5F1F4FA50183D0C82ECA1897
:101890003D2CE89437F86CCF6081718190E080E056
:1018A0000E5F1F4FF1CF42FC02C083947DCF839423
:1018B00083947ACF842D867809F476CFF6CFB7015A
:1018C00080E290E036D083948214C8F3512C79CF13
:1018D000522C5818821408F474CFF8CF842D8678CF
:1018E00009F47FCF8BE241FE80E247FC8DE2B70135
:1018F00090E076CFB70180E390E01BD09A9471CF4F
:101900008FEF9FEF9DCFFC0105906150704001105B
:10191000D8F7809590958E0F9F1F0895FC01615018
:10192000704001900110D8F7809590958E0F9F1F01
:1019300008950F931F93CF93DF93182F092FEB0177
:101940008B8181FD09C01FEF0FEF812F902FDF9159
:10195000CF911F910F91089582FF14C02E813F8176
:101960008C819D81281739073CF4E881F981CF01EA
:1019700001969983888310838E819F8101969F832E
:101980008E83E3CFE885F985812F0995892BA1F313
:10199000DACFFA01AA27283051F1203181F1E894F9
:1019A0006F936E7F6E5F7F4F8F4F9F4FAF4FB1E052
:1019B0003ED0B4E03CD0670F781F891F9A1FA11D4D
:1019C000680F791F8A1F911DA11D6A0F711D811D4E
:1019D000911DA11D20D009F468943F912AE0269F13
:1019E00011243019305D3193DEF6CF010895462F72
:1019F0004770405D4193B3E00FD0C9F7F6CF462F53
:101A00004F70405D4A3318F0495D31FD40524193BB
:101A100002D0A9F7EACFB4E0A69597958795779578
:101A20006795BA95C9F700976105710508959B01FF
:101A3000AC010A2E06945795479537952795BA9588
:0E1A4000C9F7620F731F841F951FA01D089524
:101A4E000100010005006E756C6C70006D61696EB1
:101A5E00002D2D2D2D2D2D2D2D2D2D2D2D2D2D2DD5
:101A6E002D2D2D2D2D2D2D2D2D2D2D2D2D2D2D2D98
:101A7E002D2D2D2D2D2D2D2D2D2D2D2D2D2D2D2D88
:101A8E002D2D2D2D2D2D2D2D2D2D2D2D2D2D2D0A9B
:101A9E000046726565206D656D3A2025640A0A0060
:101AAE00476574206D656D202D2073697A653A2027
:101ABE0025640A0046726565206D656D202D2061D6
:101ACE00646472313A2025582073697A653A20256C
:101ADE00640A004572726F720A004765742073744F
:101AEE0061636B202D2073697A653A2025640A00A4
:101AFE007361646472313A2025580A00736164641C
:101B0E0072323A2025580A00467265652073746158
:101B1E00636B202D207361646472313A2025582046
:101B2E0073697A653A2025640A00467265652073EA
:101B3E007461636B202D207361646472323A2025C8
:101B4E00582073697A653A2025640A0046726565E5
:101B5E00206D656D202D2061646472323A20255807
:101B6E002073697A653A2025640A004672656520FD
:0A1B7E006D656D3A2025640A000031
:00000001FF
