:1000000067C000008FC000008DC000008BC00000E2
:1000100089C0000087C0000085C0000083C00000C8
:1000200081C000007FC000007DC00000DEC0000075
:1000300079C0000077C0000075C0000073C00000E8
:1000400071C000006FC000006DC000006BC00000F8
:1000500069C0000067C0000065C0000063C0000008
:1000600061C000005FC000000C9468000C94920016
:100070000C9492000C9492000C9492000C949200B8
:100080000C9492000C9492000C9492000C949200A8
:100090000C9492000C94F5000C9492000C94920035
:1000A0000C9492000C9492000C9492000C94920088
:1000B0000C9492000C9492000C9492000C94920078
:1000C0000C9492000C9492000C9492000C94920068
:1000D00011241FBECFEFD8E0DEBFCDBF11E0A0E0FE
:1000E000B1E0EAE8F6E102C005900D92A232B10754
:1000F000D9F723E0A2E2B1E001C01D92AD37B2070B
:10010000E1F71EE71093000113E0109301011FEFC8
:100110001093020118E0109303010C94C4040E9490
:10012000900A71C26DCFFF93EF93FC0100820FB66E
:10013000F89404A21182228233824482558266821C
:10014000778280869186A286B386C486D586E68627
:10015000F786008B118B228B338B448B558B668BF0
:10016000778B808F918FA28FB38FC48FD58F0F9095
:10017000068E0F90078E0DB600A20EB601A2FB01EF
:1001800000A00DBE01A00EBE078C0F92068C0F9230
:10019000D58DC48DB38DA28D918D808D7789668923
:1001A000558944893389228911890089F784E68435
:1001B000D584C484B384A28491848084778066804B
:1001C0005580448033802280118004A00FBE0080BF
:1001D000EF91FF91089510924E0110924F011092ED
:1001E00050011092510181E008951F920F920FB6B5
:1001F0000F9211242F933F934F935F936F937F93AD
:100200008F939F93AF93BF93EF93FF938091580188
:1002100090915901A0915A01B0915B010196A11DE5
:10022000B11D8093580190935901A0935A01B09346
:100230005B01883E9340A105B105D8F080915C0137
:1002400090915D01A0915E01B0915F010196A11DA9
:10025000B11D80935C0190935D01A0935E01B0930A
:100260005F01109258011092590110925A01109298
:100270005B01E0915201F091530193E0EE0FFF1FFB
:100280009A95E1F7EA50FD4F0480F581E02DE430C6
:10029000F105C4F483E0EE0FFF1F8A95E1F7EA5001
:1002A000FD4F80819181A281B3810197A109B1099C
:1002B00080839183A283B383892B8A2B8B2B11F4A8
:1002C0000E94290A8091540190915501A0915601F4
:1002D000B09157010197A109B10949F080935401E8
:1002E00090935501A0935601B09357010DC081E042
:1002F00090E0A0E0B0E08093540190935501A0936A
:100300005601B093570195D6FF91EF91BF91AF91F0
:100310009F918F917F916F915F914F913F912F911D
:100320000F900FBE0F901F901895B5D59093530165
:100330008093520181E090E0A0E0B0E0809354010E
:1003400090935501A0935601B093570110925C0110
:1003500010925D0110925E0110925F01109258019F
:100360001092590110925A0110925B01E1E8F0E0FD
:1003700080818360808380818860808389EF90E0C2
:100380009093890080938800EFE6F0E0808182609E
:1003900080830895A6E0B0E0E0EDF1E00C94DD0A82
:1003A0002B8D29838C8CED8CFE8C09A13AA13E8388
:1003B00080D4982E40E4E416F1041CF470E4E72E97
:1003C000F12C83E0E80EF11C9CEFE92227010F2CB1
:1003D000000C66087708C301B20157D21C010196D0
:1003E00059F4892D69D4FFEFFA832FEF2B833FEF68
:1003F0003C834FEF4D8300C13091220120912301B6
:100400008091240190912501A12CB12C1BE5632F33
:10041000722F24E030E040E050E00E94B70A6B0108
:100420007C016A83DB82EC82FD82169FF001179FBC
:10043000F00D1124EC59FE4F80819181B701A60186
:100440004F5F5F4F6F4F7F4F892B79F440932201AD
:100450005093230160932401709325018FEFC816F8
:10046000D806E806F806A1F4BCCF342F252FCB011F
:10047000EFEFAE1ABE0AF4E0AF16B10441F64093B6
:100480002201509323016093240190932501A9CF69
:100490002F8D38A1121613060CF0A3CF8091D00235
:1004A0009091D102A091D202B091D3020196A11DE8
:1004B000B11D8093D0029093D102A093D202B09349
:1004C000D30285E090E0918380833383228331AE31
:1004D00020AE42AE53AE64AE75AEDF01AB5BBF4F34
:1004E0001C92A02FBE818F0180E090E02D91F80139
:1004F000E80FF91F26AF222321F0019687309105DE
:10050000A9F72BE52C9DC0012D9D900D1124FC0118
:10051000EC59FE4F5F01EA5BFF4F8FEF9FEF918336
:100520008083AAD1F501E85BFF4F608371838283EA
:100530009383389610828AEAF10180838BA19CA173
:10054000F50193A782A720E030E0F801E20FF31F46
:1005500014822F5F3F4F26323105B9F72BE52C9DD2
:10056000F0012D9DF00D1124EC59FE4F298124AB93
:1005700085AA26A387A220E820A7DE01959620E081
:1005800030E02817390764F44D915D91F901EE0FC1
:10059000FF1FE00FF11F55A744A72F5F3F4FF1CF7B
:1005A000FC017696EE0FFF1F4BE54C9D90014D9D93
:1005B000300D1124E20FF31FEC59FE4F118210820F
:1005C000F901EC59FE4F848F958F20573E4F228FB3
:1005D000338F87E29AE0D10111978C9311979C9306
:1005E000119739813C9311978C9245E0241A310878
:1005F00024A235A2892D60D36A817B818C819D8163
:100600002696E2E1F6C738D15CC3A0E0B0E0EAE0AC
:10061000F3E0D9C7EC016A017B014BD3C114D104CB
:10062000E104F10409F447C0209100013091010177
:10063000C217D30708F43FC0209102013091030193
:100640002C173D07C0F197E0C90ED11CE11CF11C2D
:1006500098EFC922A601DD0C660B770BE091F00242
:10066000F091F102A0EFB2E0309741F0EC17FD07F6
:1006700040F5DF010190F081E02DF6CF92E0A03F40
:10068000B907D1F11296CD90DD90ED90FC901597C1
:100690008D010B2E000C220B330B0C0D1D1D2E1D7E
:1006A0003F1D6E010D2E000CEE08FF08C016D1068E
:1006B000E206F30618F400D38FEF82C0309741F4BE
:1006C0001EC092E0A03FB907E9F600E010E09801F3
:1006D0006E010D2E000CEE08FF08C40ED51EE61E9E
:1006E000F71E4F010F2E000CAA08BB088C149D04A6
:1006F000AE04BF0420F4DFCF00E010E09801C0900A
:10070000F202D090F302E090F402F090F502C40EF1
:10071000D51EE61EF71EC092F202D092F302E092BE
:10072000F402F092F5026E010D2E000CEE08FF08A7
:10073000C016D106E206F30691F412960D911D91B2
:100740002D913C911597400F511F621F731F1296F8
:100750004D935D936D937C931597ED0108C0F983DC
:10076000E8834A835B836C837D83CD93DC934A81EA
:100770005B816C817D818E010D2E000C220B330B71
:10078000040F151F261F371F6F010F2E000CEE08D8
:10079000FF080C151D052E053F0581F4028113810C
:1007A00024813581400F511F621F731F4A835B8371
:1007B0006C837D8320813181398328837DD281E0E0
:1007C000CDB7DEB7ECE01BC723E0880F991F2A9551
:1007D000E1F7FC01EA50FD4F2481358124303105D9
:1007E00034F5B901032E000C880B990B43E0220F5E
:1007F000331F4A95E1F7F901EA50FD4F44815581D5
:1008000026813781F901A3E0EE0FFF1FAA95E1F7DA
:10081000EA50FD4F55834483B3E0440F551FBA950A
:10082000E1F7FA01EA50FD4F3783268308956FEF11
:100830007FEFCB010895FB0123E0EE0FFF1F2A9508
:10084000E1F7EA50FD4F4481558126813781F90156
:10085000A3E0EE0FFF1FAA95E1F7EA50FD4F558385
:100860004483B3E0440F551FBA95E1F7FA01EA500B
:10087000FD4F378326830895609160017091610177
:1008800080916201909163010895A0E0B0E0EAE4F4
:10089000F4E09DC66B017C010CD2C114D104E104CB
:1008A000F10449F197E0C90ED11CE11CF11C98EF4D
:1008B000C9220D2C000CEE08FF08E091F002F09127
:1008C000F102A0E0B0E0C0E0D0E020EF32E03097ED
:1008D00081F042815381648175814C155D056E05FF
:1008E0007F0510F0D901EF019F010190F081E02D0B
:1008F000EECF209721F4E0D18FEF9FEF41C00A8126
:100900001B812C813D81C016D106E206F30629F435
:10091000288139812D933C9311C00C191D092E0992
:100920003F090A831B832C833D83AE01DD0F660BD9
:10093000770B040F151F261F371FE8014091F202A5
:100940005091F3026091F4027091F5024C195D0927
:100950006E097F094093F2025093F3026093F40210
:100960007093F502A9D1D701C6010497A109B10975
:10097000AE01DD0F660B770B840F951FA61FB71F07
:10098000CDB7DEB7E8E03FC6C8D24ED21092D00253
:100990001092D1021092D2021092D30210927803D8
:1009A0001092790310927A0310927B03E4E6F1E04F
:1009B0001182108216AE11AE10AE13821282E55A69
:1009C000FF4F82E0E03DF80799F7C4EDD2E01882CE
:1009D00019821A821B821C825ED29E838D83279687
:1009E00092E0C03FD90799F7F6DB55D29093770391
:1009F000809376039ADCE091F002F091F102309757
:100A000021F00190F081E02DFACF1F921F921F92EA
:100A10001F9286E091E09F938F931F928AE08F93BD
:100A20001F9280E48F931F921F92B4DC2BE5269FC8
:100A3000F001279FF00D1124EC59FE4F81E090E06A
:100A4000918380833BD11F921F921F921F928CE053
:100A500091E09F938F931F9284E18F9381E08F9316
:100A600088EB8F9380E99AE09F938F9393DCC3D3B5
:100A70008DB79EB748960FB6F8949EBF0FBE8DBF38
:100A8000FFCFCF92DF92EF92FF92CF93DF936B0174
:100A90007C01CA0104970B9708F05EC084E0C81679
:100AA000D104E104F10408F057C08BE58C9DF001FE
:100AB0008D9DF00D1124EC59FE4F80819181892B81
:100AC00009F44AC0B3E0440F551FBA95E1F7FA01A3
:100AD000EA50FD4FC481D581422F220F550B660B82
:100AE000770BFE01A3E0EE0FFF1FAA95E1F7EA5096
:100AF000FD4F80819181A281B38184179507A6075C
:100B0000B7071CF0C481D581ECCF86819781D601CF
:100B100023E0AA0FBB1F2A95E1F7AA50BD4F1596F7
:100B2000DC93CE93149717969C938E9316974D93C0
:100B30005D936D937C93139733E0880F991F3A95DB
:100B4000E1F7DC01AA50BD4F1596DC92CE921497C6
:100B5000D782C68281E001C08FEFDF91CF91FF90F5
:100B6000EF90DF90CF900895A0E0B0E0E9EBF5E0E2
:100B700026C56B017C01E901CA0104970B9708F0B7
:100B800093C084E0C816D104E104F10408F08CC0DD
:100B90008BE58C9DF0018D9DF00D1124EC59FE4FDD
:100BA00080819181892B09F47FC08A01052E000C78
:100BB000220B330BFA0163E0EE0FFF1F6A95E1F79A
:100BC000EA50FD4F84819581092E000CAA0BBB0BC6
:100BD0004F5F5F4F052E000C660B770B2A013B0120
:100BE0004E010D2E000CAA08BB0884179507A60716
:100BF000B707B1F5F60133E0EE0FFF1F3A95E1F7C5
:100C0000EA50FD4F55824482178306838082918289
:100C1000A282B38243E0000F111F4A95E1F7F80169
:100C2000EA50FD4FD582C482F20153E0EE0FFF1F60
:100C30005A95E1F7EA50FD4FD782C6828415950593
:100C4000A605B70579F180819181A281B3818819C8
:100C50009909AA09BB0980839183A283B38322C027
:100C6000FC0123E0EE0FFF1F2A95E1F7EA50FD4F4C
:100C7000408051806280738084149504A604B70478
:100C800064F0C419D5090480F581E02D8C019D0123
:100C9000CF01FF0FAA0BBB0BA1CF2C013D01DB0144
:100CA000CA01A8CF81E001C08FEFCDB7DEB7E0E188
:100CB000A2C48FB7F89408958FBF089578940895CB
:100CC000FFCFCF92DF92EF92FF921F93CF93DF93EC
:100CD0006B017C01EEDF182F84E0C816D104E1041B
:100CE000F10488F48BE58C9DF0018D9DF00D1124AD
:100CF000EC59FE4F80819181892B29F0C114D104D8
:100D0000E104F10421F4812FD7DF8FEF85C08091BA
:100D1000D0029091D102A091D202B091D30201975A
:100D2000A109B1098093D0029093D102A093D2027D
:100D3000B093D3020297A105B1050CF4B9D38BE5AA
:100D40008C9DE0018D9DD00D1124CC59DE4FFE010C
:100D5000E85BFF4F6081718182819381A7019601D9
:100D60007FD24AAD5BAD6CAD7DAD495F5F4F6F4FDC
:100D70007F4F487F052E000C660B770B88AD99AD31
:100D8000092E000CAA0BBB0B0496A11DB11D841BE0
:100D9000950BA60BB70B39DC8881998184309105BE
:100DA00081F030F48130910549F0029729F127C094
:100DB0008630910551F0079721F021C019821882E1
:100DC00038D1C701B601ECD21AC0CA5BDF4F8881A7
:100DD000998127E0289FF001299FF00D1124EC5202
:100DE000FD4F81819281A381B4810196A11DB11D26
:100DF00081839283A383B483C701B6011CDD8BE595
:100E00008C9DF0018D9DF00D1124EC59FE4F118247
:100E10001082812F51DF81E0DF91CF911F91FF90F0
:100E2000EF90DF90CF9008950F931F93CF93DF93B0
:100E30008DE793E0A0E8BB270196A11DB11DEC0151
:100E400090930101809300012FEF38E0309303016C
:100E500020930201E0EFF2E09183808319821882EF
:100E6000092E000CAA0BBB0B4FEF58E060E070E0BE
:100E70008A019B01081B190B2A0B3B0B0A831B835E
:100E80002C833D830283138324833583DF91CF91A9
:100E90001F910F9108952091040130910501203197
:100EA0003105C4F5C90102969093050180930401B0
:100EB000F9013196D90183E0AA0FBB1F8A95E1F7AA
:100EC000AA50BD4F1596FC93EE9314978FEF9FEFAA
:100ED00017969C938E9316974FEF5FEF6FEF7FE718
:100EE0004D935D936D937C93139743E0EE0FFF1F3B
:100EF0004A95E1F7EA50FD4F958384833783268333
:100F000080E090E0A0E0B0E880839183A283B38387
:100F1000C90108958FEF9FEF089508959C01245013
:100F200031092B30310500F5FC0133E0EE0FFF1FD6
:100F30003A95E1F7EA50FD4F24813581243031059F
:100F40009CF442DCFB0123E0EE0FFF1F2A95E1F742
:100F5000EA50FD4F2FEF3FEF3783268335832483FD
:100F6000462F372F282F04C04FEF3FEF2FEF9FEF73
:100F7000642F732F822F08956430710581059105C8
:100F8000C8F42BE5269FF001279FF00D1124EC59A2
:100F9000FE4F20813181232B69F022E030E0318344
:100FA0002083409176035091770322816ADD41D0FE
:100FB00081E008958FEF0895CF92DF92EF92FF9234
:100FC000CF9377DEC82FC0906001D0906101E09090
:100FD0006201F09063018BE58C9DF0018D9DF00D19
:100FE0001124EC59FE4FDF01A05BBF4F8C918111A2
:100FF00005C083E090E0918380831BD02BE52C9D7E
:10100000C0012D9D900D11248C599E4FFC01E45B75
:10101000FF4FC080D180E280F380349610828C2F05
:101020004BDEC701B601CF91FF90EF90DF90CF90DC
:1010300008958F929F92AF92BF92CF92DF92EF92DC
:10104000FF928091780390917903A0917A03B091F7
:101050007B03181619061A061B0624F481E08093F8
:101060007C0374C0C0906001D0906101E090620187
:10107000F09063018BE58C9DF0018D9DF00D1124A6
:10108000EC59FE4F80819181019771F52281338166
:1010900040917603509177034901330FAA08BB08AA
:1010A000DA0183E0AA0FBB1F8A95E1F7AA50BD4F72
:1010B00014960D90BC91A02D93E0AA0FBB1F9A959A
:1010C000E1F7AA50BD4F8D919D910D90BC91A02D3F
:1010D00088159905AA05BB05CCF182E090E09183C3
:1010E0008083C701B601CDDC8091760390917703B0
:1010F00015DF6093600170936101809362019093AA
:1011000063012BE5269FD001279FB00D1124FD011F
:10111000EC59FE4F41E050E05183408341E050E004
:1011200060E070E040935401509355016093560184
:1011300070935701BD0168597E4F2C9DC0012D9DB4
:10114000900D112488599E4F0E949300FF90EF90BC
:10115000DF90CF90BF90AF909F908F9008956130B7
:1011600071058105910531F06230710581059105A8
:10117000F1F03FC08091780390917903A0917A03B8
:10118000B0917B03AC01BD014F5F5F4F6F4F7F4F4D
:10119000409378035093790360937A0370937B03B1
:1011A000892B8A2B8B2B19F510927C0320C0809100
:1011B000780390917903A0917A03B0917B0318167C
:1011C00019061A061B06ACF40197A109B109809310
:1011D000780390937903A0937A03B0937B03892BD0
:1011E0008A2B8B2B21F480917C03811122DF81E0FB
:1011F00008958FEF0895CF92DF92EF92FF921F93A1
:10120000CF93DF936B017C0154DD182F84E0C81667
:10121000D104E104F10470F48BE58C9DF0018D9D07
:10122000F00D1124EC59FE4F80819181009711F04F
:10123000059729F0812F40DD8FEF9FEF09C0D28104
:10124000C381C701B60198DE812F36DD8D2F9C2F1B
:10125000DF91CF911F91FF90EF90DF90CF90089595
:101260008F929F92AF92BF92CF92DF92EF92FF92B6
:10127000CF934B015C0169017A011BDDC82F84E02B
:1012800088169104A104B10490F48BE5889DF001C7
:10129000899DF00D1124EC59FE4F808191810097BA
:1012A00031F0DF01A05BBF4F2C91222321F08C2F66
:1012B00003DD8FEF16C0E45BFF4FC082D182E28274
:1012C000F38221E02C938330910529F0079731F4C4
:1012D000C501B40165D0C501B4014EDE8C2FECDC34
:1012E00081E0CF91FF90EF90DF90CF90BF90AF90D3
:1012F0009F908F900895CF92DF92EF92FF92CF93BD
:10130000DF9397FD33C06B017C01672B682B692B42
:1013100011F4D0D029C0CDDCD82F4091520150918A
:10132000530160916001709161018091620190911F
:101330006301960119DCC82F8F3F19F48D2FBCDC97
:1013400016C080916001909161012BE5289FF0010A
:10135000299FF00D1124EC59FE4F84E090E0918319
:10136000808367DE8D2FA8DCC1E001C0CFEF8C2F1A
:10137000DF91CF91FF90EF90DF90CF9008956C397F
:1013800024EC720720E28207910540F49B01AC0136
:10139000A8EEB3E008D1AFDF81E008958FEF0895A4
:1013A000CF92DF92EF92FF92CF936B017C0181DCB1
:1013B000C82F84E0C816D104E104F10488F48BE559
:1013C0008C9DF0018D9DF00D1124EC59FE4F808114
:1013D0009181009729F08430910531F0079721F031
:1013E0008C2F6ADC8FEF2DC0D60193E0AA0FBB1FB4
:1013F0009A95E1F7AA50BD4F1496ED91FC9115977F
:10140000E430F105C4F483E0EE0FFF1F8A95E1F7A5
:10141000EA50FD4F40815181628173818D919D9190
:101420000D90BC91A02D840F951FA61FB71F808320
:101430009183A283B383C701B601FDD98C2F3CDC15
:1014400081E0CF91FF90EF90DF90CF90089514DA74
:1014500038CC61E070E080E090E081DE8091520164
:1014600090915301FC0153E0EE0FFF1F5A95E1F7F5
:10147000EA50FD4F2481358124303105A4F443E046
:10148000220F331F4A95E1F7F901EA50FD4F4081E1
:1014900051816281738114161506160617061CF019
:1014A0003DDD6ADDDBCF62E070E080E090E057CEAA
:1014B00007CC0895CF93FDDBC82FBBDD8C2FFCDB61
:1014C00081E0CF910895E0ECF0E0158287E6848317
:1014D0008281866082838181886181830895909171
:1014E000C00095FFFCCF8093C6000895CF93DF9393
:1014F000FB01C081D1818991882339F0F0DF6AE056
:1015000070E080E090E03BDFF6CF8DE0E8DF8AE03E
:10151000E6DF61E070E080E090E0DF91CF91089538
:10152000D2DF81E191E09F938F931F9281E08F93AF
:101530008DE191E09F938F931F9282E38F931F928F
:1015400080E88F9386E79AE09F938F930E94CA0169
:1015500052DE32DD8DB79EB70C960FB6F8949EBF63
:101560000FBE8DBF61E070E080E090E00895052E31
:1015700097FB16F400940FD057FD05D055D007FC0B
:1015800002D046F408C050954095309521953F4FC4
:101590004F4F5F4F089590958095709561957F4F5F
:1015A0008F4F9F4F089562D0A59F900DB49F900DCF
:1015B000A49F800D911D112408952F923F924F9268
:1015C0005F926F927F928F929F92AF92BF92CF92D3
:1015D000DF92EF92FF920F931F93CF93DF93CDB7DC
:1015E000DEB7CA1BDB0B0FB6F894DEBF0FBECDBF54
:1015F00009942A88398848885F846E847D848C8425
:101600009B84AA84B984C884DF80EE80FD800C812D
:101610001B81AA81B981CE0FD11D0FB6F894DEBF10
:101620000FBECDBFED010895A1E21A2EAA1BBB1B70
:10163000FD010DC0AA1FBB1FEE1FFF1FA217B3079E
:10164000E407F50720F0A21BB30BE40BF50B661FB4
:10165000771F881F991F1A9469F760957095809578
:1016600090959B01AC01BD01CF010895A29FB001EF
:10167000B39FC001A39F700D811D1124911DB29FC6
:0A168000700D811D1124911D0895C5
:10168A000100010004006E756C6C70006D61696E7A
:10169A000068656C6C6F20776F726C640065785FA8
:0216AA0030000E
:00000001FF
